{
  "_format": "hh-sol-artifact-1",
  "contractName": "SupplyChain",
  "sourceName": "contracts/contract.sol",
  "abi": [
    {
      "anonymous": false,
      "inputs": [
        {
          "indexed": false,
          "internalType": "string",
          "name": "message",
          "type": "string"
        },
        {
          "indexed": false,
          "internalType": "address",
          "name": "value",
          "type": "address"
        }
      ],
      "name": "Debug",
      "type": "event"
    },
    {
      "anonymous": false,
      "inputs": [
        {
          "indexed": false,
          "internalType": "uint256",
          "name": "productId",
          "type": "uint256"
        },
        {
          "indexed": false,
          "internalType": "string",
          "name": "productName",
          "type": "string"
        },
        {
          "indexed": false,
          "internalType": "address",
          "name": "Owner",
          "type": "address"
        }
      ],
      "name": "ProductCreate",
      "type": "event"
    },
    {
      "anonymous": false,
      "inputs": [
        {
          "indexed": false,
          "internalType": "uint256",
          "name": "productId",
          "type": "uint256"
        },
        {
          "indexed": false,
          "internalType": "address",
          "name": "from",
          "type": "address"
        },
        {
          "indexed": false,
          "internalType": "address",
          "name": "to",
          "type": "address"
        },
        {
          "indexed": false,
          "internalType": "string",
          "name": "details",
          "type": "string"
        }
      ],
      "name": "ProductTransferred",
      "type": "event"
    },
    {
      "inputs": [
        {
          "internalType": "uint256",
          "name": "_productId",
          "type": "uint256"
        },
        {
          "internalType": "string",
          "name": "_productName",
          "type": "string"
        }
      ],
      "name": "createProduct",
      "outputs": [],
      "stateMutability": "nonpayable",
      "type": "function"
    },
    {
      "inputs": [],
      "name": "getAllProducts",
      "outputs": [
        {
          "components": [
            {
              "internalType": "uint256",
              "name": "id",
              "type": "uint256"
            },
            {
              "internalType": "string",
              "name": "product_name",
              "type": "string"
            },
            {
              "internalType": "address",
              "name": "Owner",
              "type": "address"
            }
          ],
          "internalType": "struct SupplyChain.Product[]",
          "name": "",
          "type": "tuple[]"
        }
      ],
      "stateMutability": "view",
      "type": "function"
    },
    {
      "inputs": [
        {
          "internalType": "uint256",
          "name": "_productId",
          "type": "uint256"
        }
      ],
      "name": "getProductDetails",
      "outputs": [
        {
          "internalType": "string",
          "name": "",
          "type": "string"
        },
        {
          "internalType": "address",
          "name": "",
          "type": "address"
        }
      ],
      "stateMutability": "view",
      "type": "function"
    },
    {
      "inputs": [
        {
          "internalType": "uint256",
          "name": "",
          "type": "uint256"
        }
      ],
      "name": "productIds",
      "outputs": [
        {
          "internalType": "uint256",
          "name": "",
          "type": "uint256"
        }
      ],
      "stateMutability": "view",
      "type": "function"
    },
    {
      "inputs": [
        {
          "internalType": "uint256",
          "name": "",
          "type": "uint256"
        },
        {
          "internalType": "uint256",
          "name": "",
          "type": "uint256"
        }
      ],
      "name": "productTransfer",
      "outputs": [
        {
          "internalType": "uint256",
          "name": "id",
          "type": "uint256"
        },
        {
          "internalType": "address",
          "name": "from",
          "type": "address"
        },
        {
          "internalType": "address",
          "name": "to",
          "type": "address"
        },
        {
          "internalType": "uint256",
          "name": "timestamp",
          "type": "uint256"
        },
        {
          "internalType": "string",
          "name": "details",
          "type": "string"
        }
      ],
      "stateMutability": "view",
      "type": "function"
    },
    {
      "inputs": [
        {
          "internalType": "uint256",
          "name": "",
          "type": "uint256"
        }
      ],
      "name": "products",
      "outputs": [
        {
          "internalType": "uint256",
          "name": "id",
          "type": "uint256"
        },
        {
          "internalType": "string",
          "name": "product_name",
          "type": "string"
        },
        {
          "internalType": "address",
          "name": "Owner",
          "type": "address"
        }
      ],
      "stateMutability": "view",
      "type": "function"
    },
    {
      "inputs": [
        {
          "internalType": "uint256",
          "name": "_productId",
          "type": "uint256"
        }
      ],
      "name": "trackProduct",
      "outputs": [
        {
          "components": [
            {
              "internalType": "uint256",
              "name": "id",
              "type": "uint256"
            },
            {
              "internalType": "address",
              "name": "from",
              "type": "address"
            },
            {
              "internalType": "address",
              "name": "to",
              "type": "address"
            },
            {
              "internalType": "uint256",
              "name": "timestamp",
              "type": "uint256"
            },
            {
              "internalType": "string",
              "name": "details",
              "type": "string"
            }
          ],
          "internalType": "struct SupplyChain.TransferProduct[]",
          "name": "",
          "type": "tuple[]"
        }
      ],
      "stateMutability": "view",
      "type": "function"
    },
    {
      "inputs": [
        {
          "internalType": "uint256",
          "name": "_productId",
          "type": "uint256"
        },
        {
          "internalType": "address",
          "name": "_newOwner",
          "type": "address"
        },
        {
          "internalType": "string",
          "name": "_details",
          "type": "string"
        }
      ],
      "name": "transferProduct",
      "outputs": [],
      "stateMutability": "nonpayable",
      "type": "function"
    },
    {
      "inputs": [
        {
          "internalType": "uint256",
          "name": "_productId",
          "type": "uint256"
        }
      ],
      "name": "verifyProduct",
      "outputs": [
        {
          "internalType": "bool",
          "name": "",
          "type": "bool"
        }
      ],
      "stateMutability": "view",
      "type": "function"
    }
  ],
  "bytecode": "0x608060405234801561001057600080fd5b50611afe806100206000396000f3fe608060405234801561001057600080fd5b50600436106100935760003560e01c80636813b53b116100665780636813b53b1461011e5780637acc0b201461014f578063c894c25814610181578063cb51bba9146101b1578063e9afd773146101e157610093565b806302ee3a52146100985780630a01841d146100b6578063293bb2c1146100d2578063524e8462146100ee575b600080fd5b6100a0610215565b6040516100ad9190610fd0565b60405180910390f35b6100d060048036038101906100cb9190611167565b6103f1565b005b6100ec60048036038101906100e791906111ef565b6105aa565b005b6101086004803603810190610103919061125e565b610882565b60405161011591906112a6565b60405180910390f35b6101386004803603810190610133919061125e565b6108f0565b60405161014692919061131a565b60405180910390f35b6101696004803603810190610164919061125e565b6109c8565b60405161017893929190611359565b60405180910390f35b61019b6004803603810190610196919061125e565b610a9a565b6040516101a891906114cf565b60405180910390f35b6101cb60048036038101906101c6919061125e565b610c5e565b6040516101d891906114f1565b60405180910390f35b6101fb60048036038101906101f6919061150c565b610c82565b60405161020c95949392919061154c565b60405180910390f35b60606000600280549050905060008167ffffffffffffffff81111561023d5761023c61103c565b5b60405190808252806020026020018201604052801561027657816020015b610263610d9d565b81526020019060019003908161025b5790505b50905060005b828110156103e85760006002828154811061029a576102996115a6565b5b90600052602060002001549050600080828152602001908152602001600020604051806060016040529081600082015481526020016001820180546102de90611604565b80601f016020809104026020016040519081016040528092919081815260200182805461030a90611604565b80156103575780601f1061032c57610100808354040283529160200191610357565b820191906000526020600020905b81548152906001019060200180831161033a57829003601f168201915b505050505081526020016002820160009054906101000a900473ffffffffffffffffffffffffffffffffffffffff1673ffffffffffffffffffffffffffffffffffffffff1673ffffffffffffffffffffffffffffffffffffffff16815250508383815181106103c9576103c86115a6565b5b60200260200101819052505080806103e090611664565b91505061027c565b50809250505090565b600073ffffffffffffffffffffffffffffffffffffffff1660008084815260200190815260200160002060020160009054906101000a900473ffffffffffffffffffffffffffffffffffffffff1673ffffffffffffffffffffffffffffffffffffffff1614610495576040517f08c379a000000000000000000000000000000000000000000000000000000000815260040161048c906116f8565b60405180910390fd5b60405180606001604052808381526020018281526020013373ffffffffffffffffffffffffffffffffffffffff168152506000808481526020019081526020016000206000820151816000015560208201518160010190816104f791906118c4565b5060408201518160020160006101000a81548173ffffffffffffffffffffffffffffffffffffffff021916908373ffffffffffffffffffffffffffffffffffffffff16021790555090505060028290806001815401808255809150506001900390600052602060002001600090919091909150557f635f6b9e3b07bcc7bd4a0776a44232f5becd341fb03fcf6053036f943a380f3f82823360405161059e93929190611359565b60405180910390a15050565b600080600085815260200190815260200160002090507f14186b8ac9c91f14b0f16f9e886356157442bb899be26513dfe1d4d5929a5bac8160020160009054906101000a900473ffffffffffffffffffffffffffffffffffffffff1660405161061391906119e2565b60405180910390a13373ffffffffffffffffffffffffffffffffffffffff168160020160009054906101000a900473ffffffffffffffffffffffffffffffffffffffff1673ffffffffffffffffffffffffffffffffffffffff16146106ad576040517f08c379a00000000000000000000000000000000000000000000000000000000081526004016106a490611a5c565b60405180910390fd5b60006040518060a001604052808681526020013373ffffffffffffffffffffffffffffffffffffffff1681526020018573ffffffffffffffffffffffffffffffffffffffff168152602001428152602001848152509050600160008681526020019081526020016000208190806001815401808255809150506001900390600052602060002090600502016000909190919091506000820151816000015560208201518160010160006101000a81548173ffffffffffffffffffffffffffffffffffffffff021916908373ffffffffffffffffffffffffffffffffffffffff16021790555060408201518160020160006101000a81548173ffffffffffffffffffffffffffffffffffffffff021916908373ffffffffffffffffffffffffffffffffffffffff1602179055506060820151816003015560808201518160040190816107f891906118c4565b505050838260020160006101000a81548173ffffffffffffffffffffffffffffffffffffffff021916908373ffffffffffffffffffffffffffffffffffffffff1602179055507f7b9954163fa07d871126e4bf9e86dd39a340304d4ffa6a8f7b5eae106152ee03853386866040516108739493929190611a7c565b60405180910390a15050505050565b60008073ffffffffffffffffffffffffffffffffffffffff1660008084815260200190815260200160002060020160009054906101000a900473ffffffffffffffffffffffffffffffffffffffff1673ffffffffffffffffffffffffffffffffffffffff1614159050919050565b60606000806000808581526020019081526020016000209050806001018160020160009054906101000a900473ffffffffffffffffffffffffffffffffffffffff1681805461093e90611604565b80601f016020809104026020016040519081016040528092919081815260200182805461096a90611604565b80156109b75780601f1061098c576101008083540402835291602001916109b7565b820191906000526020600020905b81548152906001019060200180831161099a57829003601f168201915b505050505091509250925050915091565b60006020528060005260406000206000915090508060000154908060010180546109f190611604565b80601f0160208091040260200160405190810160405280929190818152602001828054610a1d90611604565b8015610a6a5780601f10610a3f57610100808354040283529160200191610a6a565b820191906000526020600020905b815481529060010190602001808311610a4d57829003601f168201915b5050505050908060020160009054906101000a900473ffffffffffffffffffffffffffffffffffffffff16905083565b606060016000838152602001908152602001600020805480602002602001604051908101604052809291908181526020016000905b82821015610c5357838290600052602060002090600502016040518060a0016040529081600082015481526020016001820160009054906101000a900473ffffffffffffffffffffffffffffffffffffffff1673ffffffffffffffffffffffffffffffffffffffff1673ffffffffffffffffffffffffffffffffffffffff1681526020016002820160009054906101000a900473ffffffffffffffffffffffffffffffffffffffff1673ffffffffffffffffffffffffffffffffffffffff1673ffffffffffffffffffffffffffffffffffffffff16815260200160038201548152602001600482018054610bc290611604565b80601f0160208091040260200160405190810160405280929190818152602001828054610bee90611604565b8015610c3b5780601f10610c1057610100808354040283529160200191610c3b565b820191906000526020600020905b815481529060010190602001808311610c1e57829003601f168201915b50505050508152505081526020019060010190610acf565b505050509050919050565b60028181548110610c6e57600080fd5b906000526020600020016000915090505481565b60016020528160005260406000208181548110610c9e57600080fd5b9060005260206000209060050201600091509150508060000154908060010160009054906101000a900473ffffffffffffffffffffffffffffffffffffffff16908060020160009054906101000a900473ffffffffffffffffffffffffffffffffffffffff1690806003015490806004018054610d1a90611604565b80601f0160208091040260200160405190810160405280929190818152602001828054610d4690611604565b8015610d935780601f10610d6857610100808354040283529160200191610d93565b820191906000526020600020905b815481529060010190602001808311610d7657829003601f168201915b5050505050905085565b60405180606001604052806000815260200160608152602001600073ffffffffffffffffffffffffffffffffffffffff1681525090565b600081519050919050565b600082825260208201905092915050565b6000819050602082019050919050565b6000819050919050565b610e1381610e00565b82525050565b600081519050919050565b600082825260208201905092915050565b60005b83811015610e53578082015181840152602081019050610e38565b60008484015250505050565b6000601f19601f8301169050919050565b6000610e7b82610e19565b610e858185610e24565b9350610e95818560208601610e35565b610e9e81610e5f565b840191505092915050565b600073ffffffffffffffffffffffffffffffffffffffff82169050919050565b6000610ed482610ea9565b9050919050565b610ee481610ec9565b82525050565b6000606083016000830151610f026000860182610e0a565b5060208301518482036020860152610f1a8282610e70565b9150506040830151610f2f6040860182610edb565b508091505092915050565b6000610f468383610eea565b905092915050565b6000602082019050919050565b6000610f6682610dd4565b610f708185610ddf565b935083602082028501610f8285610df0565b8060005b85811015610fbe5784840389528151610f9f8582610f3a565b9450610faa83610f4e565b925060208a01995050600181019050610f86565b50829750879550505050505092915050565b60006020820190508181036000830152610fea8184610f5b565b905092915050565b6000604051905090565b600080fd5b600080fd5b61100f81610e00565b811461101a57600080fd5b50565b60008135905061102c81611006565b92915050565b600080fd5b600080fd5b7f4e487b7100000000000000000000000000000000000000000000000000000000600052604160045260246000fd5b61107482610e5f565b810181811067ffffffffffffffff821117156110935761109261103c565b5b80604052505050565b60006110a6610ff2565b90506110b2828261106b565b919050565b600067ffffffffffffffff8211156110d2576110d161103c565b5b6110db82610e5f565b9050602081019050919050565b82818337600083830152505050565b600061110a611105846110b7565b61109c565b90508281526020810184848401111561112657611125611037565b5b6111318482856110e8565b509392505050565b600082601f83011261114e5761114d611032565b5b813561115e8482602086016110f7565b91505092915050565b6000806040838503121561117e5761117d610ffc565b5b600061118c8582860161101d565b925050602083013567ffffffffffffffff8111156111ad576111ac611001565b5b6111b985828601611139565b9150509250929050565b6111cc81610ec9565b81146111d757600080fd5b50565b6000813590506111e9816111c3565b92915050565b60008060006060848603121561120857611207610ffc565b5b60006112168682870161101d565b9350506020611227868287016111da565b925050604084013567ffffffffffffffff81111561124857611247611001565b5b61125486828701611139565b9150509250925092565b60006020828403121561127457611273610ffc565b5b60006112828482850161101d565b91505092915050565b60008115159050919050565b6112a08161128b565b82525050565b60006020820190506112bb6000830184611297565b92915050565b600082825260208201905092915050565b60006112dd82610e19565b6112e781856112c1565b93506112f7818560208601610e35565b61130081610e5f565b840191505092915050565b61131481610ec9565b82525050565b6000604082019050818103600083015261133481856112d2565b9050611343602083018461130b565b9392505050565b61135381610e00565b82525050565b600060608201905061136e600083018661134a565b818103602083015261138081856112d2565b905061138f604083018461130b565b949350505050565b600081519050919050565b600082825260208201905092915050565b6000819050602082019050919050565b600060a0830160008301516113db6000860182610e0a565b5060208301516113ee6020860182610edb565b5060408301516114016040860182610edb565b5060608301516114146060860182610e0a565b506080830151848203608086015261142c8282610e70565b9150508091505092915050565b600061144583836113c3565b905092915050565b6000602082019050919050565b600061146582611397565b61146f81856113a2565b935083602082028501611481856113b3565b8060005b858110156114bd578484038952815161149e8582611439565b94506114a98361144d565b925060208a01995050600181019050611485565b50829750879550505050505092915050565b600060208201905081810360008301526114e9818461145a565b905092915050565b6000602082019050611506600083018461134a565b92915050565b6000806040838503121561152357611522610ffc565b5b60006115318582860161101d565b92505060206115428582860161101d565b9150509250929050565b600060a082019050611561600083018861134a565b61156e602083018761130b565b61157b604083018661130b565b611588606083018561134a565b818103608083015261159a81846112d2565b90509695505050505050565b7f4e487b7100000000000000000000000000000000000000000000000000000000600052603260045260246000fd5b7f4e487b7100000000000000000000000000000000000000000000000000000000600052602260045260246000fd5b6000600282049050600182168061161c57607f821691505b60208210810361162f5761162e6115d5565b5b50919050565b7f4e487b7100000000000000000000000000000000000000000000000000000000600052601160045260246000fd5b600061166f82610e00565b91507fffffffffffffffffffffffffffffffffffffffffffffffffffffffffffffffff82036116a1576116a0611635565b5b600182019050919050565b7f50726f6475637420616c72656164792065786973747300000000000000000000600082015250565b60006116e26016836112c1565b91506116ed826116ac565b602082019050919050565b60006020820190508181036000830152611711816116d5565b9050919050565b60008190508160005260206000209050919050565b60006020601f8301049050919050565b600082821b905092915050565b60006008830261177a7fffffffffffffffffffffffffffffffffffffffffffffffffffffffffffffffff8261173d565b611784868361173d565b95508019841693508086168417925050509392505050565b6000819050919050565b60006117c16117bc6117b784610e00565b61179c565b610e00565b9050919050565b6000819050919050565b6117db836117a6565b6117ef6117e7826117c8565b84845461174a565b825550505050565b600090565b6118046117f7565b61180f8184846117d2565b505050565b5b81811015611833576118286000826117fc565b600181019050611815565b5050565b601f8211156118785761184981611718565b6118528461172d565b81016020851015611861578190505b61187561186d8561172d565b830182611814565b50505b505050565b600082821c905092915050565b600061189b6000198460080261187d565b1980831691505092915050565b60006118b4838361188a565b9150826002028217905092915050565b6118cd82610e19565b67ffffffffffffffff8111156118e6576118e561103c565b5b6118f08254611604565b6118fb828285611837565b600060209050601f83116001811461192e576000841561191c578287015190505b61192685826118a8565b86555061198e565b601f19841661193c86611718565b60005b828110156119645784890151825560018201915060208501945060208101905061193f565b86831015611981578489015161197d601f89168261188a565b8355505b6001600288020188555050505b505050505050565b7f436865636b696e672070726f64756374206f776e657200000000000000000000600082015250565b60006119cc6016836112c1565b91506119d782611996565b602082019050919050565b600060408201905081810360008301526119fb816119bf565b9050611a0a602083018461130b565b92915050565b7f596f752063616e277420706572666f726d2074686973206f7065726174696f6e600082015250565b6000611a466020836112c1565b9150611a5182611a10565b602082019050919050565b60006020820190508181036000830152611a7581611a39565b9050919050565b6000608082019050611a91600083018761134a565b611a9e602083018661130b565b611aab604083018561130b565b8181036060830152611abd81846112d2565b90509594505050505056fea2646970667358221220b75d766796e909f7a89e44666ee54e11fd41c85d192d9cfb31b2f4d0a7f7ab6c64736f6c63430008110033",
  "linkReferences": {},
  "deployedLinkReferences": {}
}