{
  "_format": "hh-sol-artifact-1",
  "contractName": "SupplyChain",
  "sourceName": "contracts/contract.sol",
  "abi": [
    {
      "anonymous": false,
      "inputs": [
        {
          "indexed": false,
          "internalType": "uint256",
          "name": "productId",
          "type": "uint256"
        },
        {
          "indexed": false,
          "internalType": "string",
          "name": "productName",
          "type": "string"
        },
        {
          "indexed": false,
          "internalType": "address",
          "name": "Owner",
          "type": "address"
        }
      ],
      "name": "ProductCreated",
      "type": "event"
    },
    {
      "anonymous": false,
      "inputs": [
        {
          "indexed": false,
          "internalType": "uint256",
          "name": "productId",
          "type": "uint256"
        },
        {
          "indexed": false,
          "internalType": "address",
          "name": "from",
          "type": "address"
        },
        {
          "indexed": false,
          "internalType": "address",
          "name": "to",
          "type": "address"
        },
        {
          "indexed": false,
          "internalType": "string",
          "name": "details",
          "type": "string"
        }
      ],
      "name": "ProductTransferred",
      "type": "event"
    },
    {
      "anonymous": false,
      "inputs": [
        {
          "indexed": true,
          "internalType": "uint256",
          "name": "productId",
          "type": "uint256"
        },
        {
          "indexed": false,
          "internalType": "address",
          "name": "newOwner",
          "type": "address"
        }
      ],
      "name": "TransferCancelled",
      "type": "event"
    },
    {
      "inputs": [
        {
          "internalType": "uint256",
          "name": "productId",
          "type": "uint256"
        }
      ],
      "name": "cancelTransferProduct",
      "outputs": [],
      "stateMutability": "nonpayable",
      "type": "function"
    },
    {
      "inputs": [
        {
          "internalType": "uint256",
          "name": "_productId",
          "type": "uint256"
        },
        {
          "internalType": "string",
          "name": "_productName",
          "type": "string"
        }
      ],
      "name": "createProduct",
      "outputs": [],
      "stateMutability": "nonpayable",
      "type": "function"
    },
    {
      "inputs": [],
      "name": "getAllProducts",
      "outputs": [
        {
          "components": [
            {
              "internalType": "uint256",
              "name": "id",
              "type": "uint256"
            },
            {
              "internalType": "string",
              "name": "product_name",
              "type": "string"
            },
            {
              "internalType": "address",
              "name": "Owner",
              "type": "address"
            },
            {
              "internalType": "address",
              "name": "previousOwner",
              "type": "address"
            },
            {
              "internalType": "bool",
              "name": "isTransferred",
              "type": "bool"
            }
          ],
          "internalType": "struct SupplyChain.Product[]",
          "name": "",
          "type": "tuple[]"
        }
      ],
      "stateMutability": "view",
      "type": "function"
    },
    {
      "inputs": [
        {
          "internalType": "uint256",
          "name": "_productId",
          "type": "uint256"
        }
      ],
      "name": "getProductDetails",
      "outputs": [
        {
          "internalType": "string",
          "name": "",
          "type": "string"
        },
        {
          "internalType": "address",
          "name": "",
          "type": "address"
        }
      ],
      "stateMutability": "view",
      "type": "function"
    },
    {
      "inputs": [
        {
          "internalType": "uint256",
          "name": "",
          "type": "uint256"
        }
      ],
      "name": "productIds",
      "outputs": [
        {
          "internalType": "uint256",
          "name": "",
          "type": "uint256"
        }
      ],
      "stateMutability": "view",
      "type": "function"
    },
    {
      "inputs": [
        {
          "internalType": "uint256",
          "name": "",
          "type": "uint256"
        },
        {
          "internalType": "uint256",
          "name": "",
          "type": "uint256"
        }
      ],
      "name": "productTransfer",
      "outputs": [
        {
          "internalType": "uint256",
          "name": "id",
          "type": "uint256"
        },
        {
          "internalType": "address",
          "name": "from",
          "type": "address"
        },
        {
          "internalType": "address",
          "name": "to",
          "type": "address"
        },
        {
          "internalType": "uint256",
          "name": "timestamp",
          "type": "uint256"
        },
        {
          "internalType": "string",
          "name": "details",
          "type": "string"
        }
      ],
      "stateMutability": "view",
      "type": "function"
    },
    {
      "inputs": [
        {
          "internalType": "uint256",
          "name": "",
          "type": "uint256"
        }
      ],
      "name": "products",
      "outputs": [
        {
          "internalType": "uint256",
          "name": "id",
          "type": "uint256"
        },
        {
          "internalType": "string",
          "name": "product_name",
          "type": "string"
        },
        {
          "internalType": "address",
          "name": "Owner",
          "type": "address"
        },
        {
          "internalType": "address",
          "name": "previousOwner",
          "type": "address"
        },
        {
          "internalType": "bool",
          "name": "isTransferred",
          "type": "bool"
        }
      ],
      "stateMutability": "view",
      "type": "function"
    },
    {
      "inputs": [
        {
          "internalType": "uint256",
          "name": "_productId",
          "type": "uint256"
        }
      ],
      "name": "trackProduct",
      "outputs": [
        {
          "components": [
            {
              "internalType": "uint256",
              "name": "id",
              "type": "uint256"
            },
            {
              "internalType": "address",
              "name": "from",
              "type": "address"
            },
            {
              "internalType": "address",
              "name": "to",
              "type": "address"
            },
            {
              "internalType": "uint256",
              "name": "timestamp",
              "type": "uint256"
            },
            {
              "internalType": "string",
              "name": "details",
              "type": "string"
            }
          ],
          "internalType": "struct SupplyChain.TransferProduct[]",
          "name": "",
          "type": "tuple[]"
        }
      ],
      "stateMutability": "view",
      "type": "function"
    },
    {
      "inputs": [
        {
          "internalType": "uint256",
          "name": "_productId",
          "type": "uint256"
        },
        {
          "internalType": "address",
          "name": "_newOwner",
          "type": "address"
        },
        {
          "internalType": "string",
          "name": "_details",
          "type": "string"
        }
      ],
      "name": "transferProduct",
      "outputs": [],
      "stateMutability": "nonpayable",
      "type": "function"
    },
    {
      "inputs": [
        {
          "internalType": "uint256",
          "name": "_productId",
          "type": "uint256"
        }
      ],
      "name": "verifyProduct",
      "outputs": [
        {
          "internalType": "bool",
          "name": "",
          "type": "bool"
        }
      ],
      "stateMutability": "view",
      "type": "function"
    }
  ],
  "bytecode": "0x608060405234801561001057600080fd5b506123aa806100206000396000f3fe608060405234801561001057600080fd5b506004361061009e5760003560e01c80636813b53b116100665780636813b53b146101455780637acc0b2014610176578063c894c258146101aa578063cb51bba9146101da578063e9afd7731461020a5761009e565b806302ee3a52146100a35780630a01841d146100c1578063293bb2c1146100dd578063524e8462146100f95780635f78749414610129575b600080fd5b6100ab61023e565b6040516100b891906115b9565b60405180910390f35b6100db60048036038101906100d69190611750565b61048b565b005b6100f760048036038101906100f291906117d8565b6106d1565b005b610113600480360381019061010e9190611847565b610a41565b6040516101209190611883565b60405180910390f35b610143600480360381019061013e9190611847565b610aaf565b005b61015f600480360381019061015a9190611847565b610e39565b60405161016d9291906118f7565b60405180910390f35b610190600480360381019061018b9190611847565b610f11565b6040516101a1959493929190611936565b60405180910390f35b6101c460048036038101906101bf9190611847565b61101c565b6040516101d19190611ac8565b60405180910390f35b6101f460048036038101906101ef9190611847565b6111e0565b6040516102019190611aea565b60405180910390f35b610224600480360381019061021f9190611b05565b611204565b604051610235959493929190611b45565b60405180910390f35b60606000600280549050905060008167ffffffffffffffff81111561026657610265611625565b5b60405190808252806020026020018201604052801561029f57816020015b61028c61131f565b8152602001906001900390816102845790505b50905060005b82811015610482576000600282815481106102c3576102c2611b9f565b5b906000526020600020015490506000808281526020019081526020016000206040518060a00160405290816000820154815260200160018201805461030790611bfd565b80601f016020809104026020016040519081016040528092919081815260200182805461033390611bfd565b80156103805780601f1061035557610100808354040283529160200191610380565b820191906000526020600020905b81548152906001019060200180831161036357829003601f168201915b505050505081526020016002820160009054906101000a900473ffffffffffffffffffffffffffffffffffffffff1673ffffffffffffffffffffffffffffffffffffffff1673ffffffffffffffffffffffffffffffffffffffff1681526020016003820160009054906101000a900473ffffffffffffffffffffffffffffffffffffffff1673ffffffffffffffffffffffffffffffffffffffff1673ffffffffffffffffffffffffffffffffffffffff1681526020016003820160149054906101000a900460ff16151515158152505083838151811061046357610462611b9f565b5b602002602001018190525050808061047a90611c5d565b9150506102a5565b50809250505090565b600073ffffffffffffffffffffffffffffffffffffffff1660008084815260200190815260200160002060020160009054906101000a900473ffffffffffffffffffffffffffffffffffffffff1673ffffffffffffffffffffffffffffffffffffffff161461052f576040517f08c379a000000000000000000000000000000000000000000000000000000000815260040161052690611cf1565b60405180910390fd5b6040518060a001604052808381526020018281526020013373ffffffffffffffffffffffffffffffffffffffff168152602001600073ffffffffffffffffffffffffffffffffffffffff168152602001600015158152506000808481526020019081526020016000206000820151816000015560208201518160010190816105b79190611ebd565b5060408201518160020160006101000a81548173ffffffffffffffffffffffffffffffffffffffff021916908373ffffffffffffffffffffffffffffffffffffffff16021790555060608201518160030160006101000a81548173ffffffffffffffffffffffffffffffffffffffff021916908373ffffffffffffffffffffffffffffffffffffffff16021790555060808201518160030160146101000a81548160ff02191690831515021790555090505060028290806001815401808255809150506001900390600052602060002001600090919091909150557faf6ffb6277511513e7d579327cc1fc57f0266df2fb11a60b13487b8c9cd2c3888282336040516106c593929190611f8f565b60405180910390a15050565b600080600085815260200190815260200160002090503373ffffffffffffffffffffffffffffffffffffffff168160020160009054906101000a900473ffffffffffffffffffffffffffffffffffffffff1673ffffffffffffffffffffffffffffffffffffffff1614610779576040517f08c379a00000000000000000000000000000000000000000000000000000000081526004016107709061203f565b60405180910390fd5b600073ffffffffffffffffffffffffffffffffffffffff168373ffffffffffffffffffffffffffffffffffffffff16036107e8576040517f08c379a00000000000000000000000000000000000000000000000000000000081526004016107df906120ab565b60405180910390fd5b8060020160009054906101000a900473ffffffffffffffffffffffffffffffffffffffff168160030160006101000a81548173ffffffffffffffffffffffffffffffffffffffff021916908373ffffffffffffffffffffffffffffffffffffffff160217905550828160020160006101000a81548173ffffffffffffffffffffffffffffffffffffffff021916908373ffffffffffffffffffffffffffffffffffffffff16021790555060018160030160146101000a81548160ff02191690831515021790555060006040518060a001604052808681526020013373ffffffffffffffffffffffffffffffffffffffff1681526020018573ffffffffffffffffffffffffffffffffffffffff168152602001428152602001848152509050600160008681526020019081526020016000208190806001815401808255809150506001900390600052602060002090600502016000909190919091506000820151816000015560208201518160010160006101000a81548173ffffffffffffffffffffffffffffffffffffffff021916908373ffffffffffffffffffffffffffffffffffffffff16021790555060408201518160020160006101000a81548173ffffffffffffffffffffffffffffffffffffffff021916908373ffffffffffffffffffffffffffffffffffffffff1602179055506060820151816003015560808201518160040190816109fa9190611ebd565b5050507f7b9954163fa07d871126e4bf9e86dd39a340304d4ffa6a8f7b5eae106152ee0385338686604051610a3294939291906120cb565b60405180910390a15050505050565b60008073ffffffffffffffffffffffffffffffffffffffff1660008084815260200190815260200160002060020160009054906101000a900473ffffffffffffffffffffffffffffffffffffffff1673ffffffffffffffffffffffffffffffffffffffff1614159050919050565b60008103610af2576040517f08c379a0000000000000000000000000000000000000000000000000000000008152600401610ae990612163565b60405180910390fd5b60008060008381526020019081526020016000209050600073ffffffffffffffffffffffffffffffffffffffff168160020160009054906101000a900473ffffffffffffffffffffffffffffffffffffffff1673ffffffffffffffffffffffffffffffffffffffff1603610b9b576040517f08c379a0000000000000000000000000000000000000000000000000000000008152600401610b92906121cf565b60405180910390fd5b8060030160149054906101000a900460ff16610bec576040517f08c379a0000000000000000000000000000000000000000000000000000000008152600401610be39061223b565b60405180910390fd5b8060020160009054906101000a900473ffffffffffffffffffffffffffffffffffffffff1673ffffffffffffffffffffffffffffffffffffffff163373ffffffffffffffffffffffffffffffffffffffff1614610c7e576040517f08c379a0000000000000000000000000000000000000000000000000000000008152600401610c75906122cd565b60405180910390fd5b600073ffffffffffffffffffffffffffffffffffffffff168160030160009054906101000a900473ffffffffffffffffffffffffffffffffffffffff1673ffffffffffffffffffffffffffffffffffffffff1603610d11576040517f08c379a0000000000000000000000000000000000000000000000000000000008152600401610d0890612339565b60405180910390fd5b8060030160009054906101000a900473ffffffffffffffffffffffffffffffffffffffff168160020160006101000a81548173ffffffffffffffffffffffffffffffffffffffff021916908373ffffffffffffffffffffffffffffffffffffffff16021790555060008160030160006101000a81548173ffffffffffffffffffffffffffffffffffffffff021916908373ffffffffffffffffffffffffffffffffffffffff16021790555060008160030160146101000a81548160ff021916908315150217905550817fad5d1da63a71147a146daa2d4c6cdc9ab57b00bd41306f855d0afe41c5ed28408260020160009054906101000a900473ffffffffffffffffffffffffffffffffffffffff16604051610e2d9190612359565b60405180910390a25050565b60606000806000808581526020019081526020016000209050806001018160020160009054906101000a900473ffffffffffffffffffffffffffffffffffffffff16818054610e8790611bfd565b80601f0160208091040260200160405190810160405280929190818152602001828054610eb390611bfd565b8015610f005780601f10610ed557610100808354040283529160200191610f00565b820191906000526020600020905b815481529060010190602001808311610ee357829003601f168201915b505050505091509250925050915091565b6000602052806000526040600020600091509050806000015490806001018054610f3a90611bfd565b80601f0160208091040260200160405190810160405280929190818152602001828054610f6690611bfd565b8015610fb35780601f10610f8857610100808354040283529160200191610fb3565b820191906000526020600020905b815481529060010190602001808311610f9657829003601f168201915b5050505050908060020160009054906101000a900473ffffffffffffffffffffffffffffffffffffffff16908060030160009054906101000a900473ffffffffffffffffffffffffffffffffffffffff16908060030160149054906101000a900460ff16905085565b606060016000838152602001908152602001600020805480602002602001604051908101604052809291908181526020016000905b828210156111d557838290600052602060002090600502016040518060a0016040529081600082015481526020016001820160009054906101000a900473ffffffffffffffffffffffffffffffffffffffff1673ffffffffffffffffffffffffffffffffffffffff1673ffffffffffffffffffffffffffffffffffffffff1681526020016002820160009054906101000a900473ffffffffffffffffffffffffffffffffffffffff1673ffffffffffffffffffffffffffffffffffffffff1673ffffffffffffffffffffffffffffffffffffffff1681526020016003820154815260200160048201805461114490611bfd565b80601f016020809104026020016040519081016040528092919081815260200182805461117090611bfd565b80156111bd5780601f10611192576101008083540402835291602001916111bd565b820191906000526020600020905b8154815290600101906020018083116111a057829003601f168201915b50505050508152505081526020019060010190611051565b505050509050919050565b600281815481106111f057600080fd5b906000526020600020016000915090505481565b6001602052816000526040600020818154811061122057600080fd5b9060005260206000209060050201600091509150508060000154908060010160009054906101000a900473ffffffffffffffffffffffffffffffffffffffff16908060020160009054906101000a900473ffffffffffffffffffffffffffffffffffffffff169080600301549080600401805461129c90611bfd565b80601f01602080910402602001604051908101604052809291908181526020018280546112c890611bfd565b80156113155780601f106112ea57610100808354040283529160200191611315565b820191906000526020600020905b8154815290600101906020018083116112f857829003601f168201915b5050505050905085565b6040518060a001604052806000815260200160608152602001600073ffffffffffffffffffffffffffffffffffffffff168152602001600073ffffffffffffffffffffffffffffffffffffffff1681526020016000151581525090565b600081519050919050565b600082825260208201905092915050565b6000819050602082019050919050565b6000819050919050565b6113bb816113a8565b82525050565b600081519050919050565b600082825260208201905092915050565b60005b838110156113fb5780820151818401526020810190506113e0565b60008484015250505050565b6000601f19601f8301169050919050565b6000611423826113c1565b61142d81856113cc565b935061143d8185602086016113dd565b61144681611407565b840191505092915050565b600073ffffffffffffffffffffffffffffffffffffffff82169050919050565b600061147c82611451565b9050919050565b61148c81611471565b82525050565b60008115159050919050565b6114a781611492565b82525050565b600060a0830160008301516114c560008601826113b2565b50602083015184820360208601526114dd8282611418565b91505060408301516114f26040860182611483565b5060608301516115056060860182611483565b506080830151611518608086018261149e565b508091505092915050565b600061152f83836114ad565b905092915050565b6000602082019050919050565b600061154f8261137c565b6115598185611387565b93508360208202850161156b85611398565b8060005b858110156115a757848403895281516115888582611523565b945061159383611537565b925060208a0199505060018101905061156f565b50829750879550505050505092915050565b600060208201905081810360008301526115d38184611544565b905092915050565b6000604051905090565b600080fd5b600080fd5b6115f8816113a8565b811461160357600080fd5b50565b600081359050611615816115ef565b92915050565b600080fd5b600080fd5b7f4e487b7100000000000000000000000000000000000000000000000000000000600052604160045260246000fd5b61165d82611407565b810181811067ffffffffffffffff8211171561167c5761167b611625565b5b80604052505050565b600061168f6115db565b905061169b8282611654565b919050565b600067ffffffffffffffff8211156116bb576116ba611625565b5b6116c482611407565b9050602081019050919050565b82818337600083830152505050565b60006116f36116ee846116a0565b611685565b90508281526020810184848401111561170f5761170e611620565b5b61171a8482856116d1565b509392505050565b600082601f8301126117375761173661161b565b5b81356117478482602086016116e0565b91505092915050565b60008060408385031215611767576117666115e5565b5b600061177585828601611606565b925050602083013567ffffffffffffffff811115611796576117956115ea565b5b6117a285828601611722565b9150509250929050565b6117b581611471565b81146117c057600080fd5b50565b6000813590506117d2816117ac565b92915050565b6000806000606084860312156117f1576117f06115e5565b5b60006117ff86828701611606565b9350506020611810868287016117c3565b925050604084013567ffffffffffffffff811115611831576118306115ea565b5b61183d86828701611722565b9150509250925092565b60006020828403121561185d5761185c6115e5565b5b600061186b84828501611606565b91505092915050565b61187d81611492565b82525050565b60006020820190506118986000830184611874565b92915050565b600082825260208201905092915050565b60006118ba826113c1565b6118c4818561189e565b93506118d48185602086016113dd565b6118dd81611407565b840191505092915050565b6118f181611471565b82525050565b6000604082019050818103600083015261191181856118af565b905061192060208301846118e8565b9392505050565b611930816113a8565b82525050565b600060a08201905061194b6000830188611927565b818103602083015261195d81876118af565b905061196c60408301866118e8565b61197960608301856118e8565b6119866080830184611874565b9695505050505050565b600081519050919050565b600082825260208201905092915050565b6000819050602082019050919050565b600060a0830160008301516119d460008601826113b2565b5060208301516119e76020860182611483565b5060408301516119fa6040860182611483565b506060830151611a0d60608601826113b2565b5060808301518482036080860152611a258282611418565b9150508091505092915050565b6000611a3e83836119bc565b905092915050565b6000602082019050919050565b6000611a5e82611990565b611a68818561199b565b935083602082028501611a7a856119ac565b8060005b85811015611ab65784840389528151611a978582611a32565b9450611aa283611a46565b925060208a01995050600181019050611a7e565b50829750879550505050505092915050565b60006020820190508181036000830152611ae28184611a53565b905092915050565b6000602082019050611aff6000830184611927565b92915050565b60008060408385031215611b1c57611b1b6115e5565b5b6000611b2a85828601611606565b9250506020611b3b85828601611606565b9150509250929050565b600060a082019050611b5a6000830188611927565b611b6760208301876118e8565b611b7460408301866118e8565b611b816060830185611927565b8181036080830152611b9381846118af565b90509695505050505050565b7f4e487b7100000000000000000000000000000000000000000000000000000000600052603260045260246000fd5b7f4e487b7100000000000000000000000000000000000000000000000000000000600052602260045260246000fd5b60006002820490506001821680611c1557607f821691505b602082108103611c2857611c27611bce565b5b50919050565b7f4e487b7100000000000000000000000000000000000000000000000000000000600052601160045260246000fd5b6000611c68826113a8565b91507fffffffffffffffffffffffffffffffffffffffffffffffffffffffffffffffff8203611c9a57611c99611c2e565b5b600182019050919050565b7f50726f6475637420616c72656164792065786973747300000000000000000000600082015250565b6000611cdb60168361189e565b9150611ce682611ca5565b602082019050919050565b60006020820190508181036000830152611d0a81611cce565b9050919050565b60008190508160005260206000209050919050565b60006020601f8301049050919050565b600082821b905092915050565b600060088302611d737fffffffffffffffffffffffffffffffffffffffffffffffffffffffffffffffff82611d36565b611d7d8683611d36565b95508019841693508086168417925050509392505050565b6000819050919050565b6000611dba611db5611db0846113a8565b611d95565b6113a8565b9050919050565b6000819050919050565b611dd483611d9f565b611de8611de082611dc1565b848454611d43565b825550505050565b600090565b611dfd611df0565b611e08818484611dcb565b505050565b5b81811015611e2c57611e21600082611df5565b600181019050611e0e565b5050565b601f821115611e7157611e4281611d11565b611e4b84611d26565b81016020851015611e5a578190505b611e6e611e6685611d26565b830182611e0d565b50505b505050565b600082821c905092915050565b6000611e9460001984600802611e76565b1980831691505092915050565b6000611ead8383611e83565b9150826002028217905092915050565b611ec6826113c1565b67ffffffffffffffff811115611edf57611ede611625565b5b611ee98254611bfd565b611ef4828285611e30565b600060209050601f831160018114611f275760008415611f15578287015190505b611f1f8582611ea1565b865550611f87565b601f198416611f3586611d11565b60005b82811015611f5d57848901518255600182019150602085019450602081019050611f38565b86831015611f7a5784890151611f76601f891682611e83565b8355505b6001600288020188555050505b505050505050565b6000606082019050611fa46000830186611927565b8181036020830152611fb681856118af565b9050611fc560408301846118e8565b949350505050565b7f4f6e6c79207468652063757272656e74206f776e65722063616e207472616e7360008201527f6665720000000000000000000000000000000000000000000000000000000000602082015250565b600061202960238361189e565b915061203482611fcd565b604082019050919050565b600060208201905081810360008301526120588161201c565b9050919050565b7f4e6577206f776e6572206164647265737320697320696e76616c696400000000600082015250565b6000612095601c8361189e565b91506120a08261205f565b602082019050919050565b600060208201905081810360008301526120c481612088565b9050919050565b60006080820190506120e06000830187611927565b6120ed60208301866118e8565b6120fa60408301856118e8565b818103606083015261210c81846118af565b905095945050505050565b7f50726f64756374204944206973206e6f742076616c6964000000000000000000600082015250565b600061214d60178361189e565b915061215882612117565b602082019050919050565b6000602082019050818103600083015261217c81612140565b9050919050565b7f50726f6475637420646f6573206e6f7420657869737400000000000000000000600082015250565b60006121b960168361189e565b91506121c482612183565b602082019050919050565b600060208201905081810360008301526121e8816121ac565b9050919050565b7f50726f64756374206973206e6f74207472616e73666572726564000000000000600082015250565b6000612225601a8361189e565b9150612230826121ef565b602082019050919050565b6000602082019050818103600083015261225481612218565b9050919050565b7f4f6e6c79207468652063757272656e74206f776e65722063616e2063616e636560008201527f6c00000000000000000000000000000000000000000000000000000000000000602082015250565b60006122b760218361189e565b91506122c28261225b565b604082019050919050565b600060208201905081810360008301526122e6816122aa565b9050919050565b7f4e6f2070726576696f7573206f776e657220746f2072657665727420746f0000600082015250565b6000612323601e8361189e565b915061232e826122ed565b602082019050919050565b6000602082019050818103600083015261235281612316565b9050919050565b600060208201905061236e60008301846118e8565b9291505056fea26469706673582212204028c4d75bd4aa887030ae104c056bf61eb028496cac9280cbe545d5e6462e6b64736f6c63430008110033",
  "linkReferences": {},
  "deployedLinkReferences": {}
}